:100000000C947F000C949C000C949C000C949C001D
:100010000C949C000C94D6000C949C000C949C00B6
:100020000C949C000C949C000C949C000C949C00E0
:100030000C949C000C949C000C949C000C949C00D0
:100040000C94521C0C949C000C949C000C949C00EE
:100050000C948B1B0C94491B0C949C000C949C00DE
:100060000C949C000C949C000C949C000C949C00A0
:100070000C949C000C949C000C949C005072657332
:1000800073206120627574746F6E20746F207374B6
:1000900061727420616761696E0047414D45204F70
:1000A0005645520053747564656E74206E756D62AA
:1000B0006572203A2073343639353036390043536F
:1000C0005345323031302F373230312070726F6A01
:1000D000656374206279204D6F68616D61642044AE
:1000E0006162626F75737369005465656B6F001BA5
:1000F0005B324A001B5B25643B25644800001124E9
:100100001FBECFEFD8E0DEBFCDBF12E0A0E0B1E070
:10011000E0E7F3E402C005900D92AC32B107D9F7E5
:1001200023E0ACE2B2E001C01D92A837B207E1F7CC
:100130000E94821A0C94B6210C940000E8E6F0E0CC
:100140008081826080838BB382608BBBECE6F0E0C1
:1001500080818F60808310922C02089580912C0200
:10016000181614F580912D026FB7F89491E009C02C
:10017000F901E35DFD4F4081F901E45DFD4F4083EE
:100180009F5F292F30E040912C02042E000C550B6C
:10019000241735076CF390912C02915090932C0208
:1001A00066231CF4789408958FEF08951F920F92A0
:1001B0000FB60F9211242F933F934F938F939F93DA
:1001C000EF93FF9343B14F7080E026C090912C02D3
:1001D00094300CF5242F30E0082E02C03595279579
:1001E0000A94E2F720FF17C02091310230E0082E78
:1001F00002C0359527950A94E2F720FD0CC0E091E6
:100200002C0291E09E0F90932C020E2E000CFF0BFF
:10021000E35DFD4F80838F5F8430C0F240933102F5
:10022000FF91EF919F918F914F913F912F910F905F
:100230000FBE0F901F9018950F931F93CF93DF93CE
:10024000CDB7DEB768970FB6F894DEBF0FBECDBF4F
:100250000E94F91880E090E009C0E1E0F0E0EC0FC6
:10026000FD1FE80FF91F25E32083019688309105D3
:10027000A4F300E010E008C0BE016F5F7F4F802F45
:100280000E94DC180F5F1F4F05301105ACF30AE028
:1002900010E008C0BE016F5F7F4F802F0E94DC1806
:1002A0000F5F1F4F00311105ACF380E090E009C0F3
:1002B000E9E0F0E0EC0FFD1FE80FF91F25E32083D4
:1002C000019680319105A4F300E010E008C0BE0162
:1002D000675F7F4F802F0E94BF180F5F1F4F023054
:1002E0001105ACF307E010E008C0BE01675F7F4F67
:1002F000802F0E94BF180F5F1F4F08301105ACF30D
:1003000068960FB6F894DEBF0FBECDBFDF91CF91D8
:100310001F910F9108951F93CF93DF93CDB7DEB751
:1003200028970FB6F894DEBF0FBECDBF0E94F91814
:1003300010E029C0E12FF0E0EC5EFE4F908190FFCD
:1003400002C02FE001C020EF87E013C0992344F4DE
:10035000E1E0F0E0EC0FFD1FE80FF11D208307C086
:10036000E1E0F0E0EC0FFD1FE80FF11D1082990FA6
:1003700081508111EBCF1982BE016F5F7F4F812FBA
:100380000E94DC181F5F1031A8F228960FB6F8946F
:10039000DEBF0FBECDBFDF91CF911F9108954130D9
:1003A00071F0423071F0433031F49091380299236A
:1003B00051F04FED0BC0443041F441E107C040EF34
:1003C00005C04FE003C04CE301C040E06E5F8B5FAF
:1003D0000E94A01808950E941C0130E014C0832FD1
:1003E00090E0FC01EE0FFF1FEE0FFF1FE80FF91F5B
:1003F000E35CFD4FE20FF11D10822F5F01C020E092
:10040000253068F33F5F3530D0F391E0909356028A
:1004100082E080935B0280933C021092580210921B
:10042000590280935A0210923B0210923802909324
:10043000370208954F925F926F927F928F929F92B0
:10044000AF92BF92CF92DF92EF92FF92CF93DF9362
:1004500000D000D0CDB7DEB74B015C0160E070E0AA
:1004600080E89FE30E947C1C20E030E04AE754E4EF
:100470000E949E1D6B017C019B01AC01C501B40172
:100480000E947C1C0E94EE1C2B013C0120E030E00D
:1004900040E05FE3C701B6010E949E1D69837A8335
:1004A0008B839C838AB180618AB9812C912C540101
:1004B0007FC020E030E04AE753E469817A818B8194
:1004C0009C810E949E1D6B017C0120E030E040E891
:1004D0005FE30E94771C882334F120E03FEF4FE771
:1004E00057E4C701B6010E94991D1816BCF420E01C
:1004F00030E040E251E469817A818B819C810E94E5
:100500009E1D0E94F51C06C089E190E00197F1F75D
:100510006150710961157105B9F70AC0C701B601CB
:100520000E94F51C02C061E070E0CB010197F1F779
:100530008BB180618BB920E030E040E85FE3C70118
:10054000B6010E94771C882334F120E03FEF4FE78B
:1005500057E4C701B6010E94991D1816BCF420E0AB
:1005600030E040E251E469817A818B819C810E9474
:100570009E1D0E94F51C06C089E190E00197F1F7ED
:100580006150710961157105B9F70AC0C701B6015B
:100590000E94F51C02C061E070E0CB010197F1F709
:1005A0008BB18F7E8BB98FEF881A980AA80AB80A88
:1005B00084149504A604B7040CF47BCF0F900F901D
:1005C0000F900F90DF91CF91FF90EF90DF90CF9041
:1005D000BF90AF909F908F907F906F905F904F9063
:1005E000089580910501882309F478C020E030E067
:1005F0004CE554E460E070E088EC93E40E941A0259
:1006000020E030E049E654E460E070E088EC93E4F8
:100610000E941A0220E030E047E754E460E070E016
:1006200088EC93E40E941A0220E030EE42E854E4A1
:1006300060E070E088EC93E40E941A0220E030EA67
:100640004AE854E460E070E088EC93E40E941A0207
:1006500020E030EE42E954E460E070E088EC93E49E
:100660000E941A0220E030E84BE954E460E070E0B8
:1006700088EC93E40E941A0220E030EE44EA54E44D
:1006800060E070E088EC93E40E941A0220E030EA17
:100690004EEA54E460E070E088EC93E40E941A02B1
:1006A00020E030E049EB54E460E070E088EC93E453
:1006B0000E941A0220E030E044EC54E460E070E074
:1006C00088EC93E40E941A0220E030E84FEC54E4F6
:1006D00060E070E088EC93E40E941A020895809133
:1006E0000501882309F46EC020E030E84FEC54E4A3
:1006F00060E070E088EC93E40E941A0220E030E0B1
:1007000044EC54E460E070E088EC93E40E941A0248
:1007100020E030E049EB54E460E070E088EC93E4E2
:100720000E941A0220E030EA4EEA54E460E070E0F1
:1007300088EC93E40E941A0220E030EE44EA54E48C
:1007400060E070E088EC93E40E941A0220E030E858
:100750004BE954E460E070E088EC93E40E941A02F4
:1007600020E030EE42E954E460E070E088EC93E48D
:100770000E941A0220E030EA4AE854E460E070E0A7
:1007800088EC93E40E941A0220E030EE42E854E440
:1007900060E070E088EC93E40E941A0220E030E010
:1007A00047E754E460E070E088EC93E40E941A02AA
:1007B00020E030E049E654E460E070E088EC93E447
:1007C0000E941A020895809105018823F1F020E02B
:1007D00030E04AEF53E460E070E088EC93E40E947C
:1007E0001A0220E030E04FE254E460E070E088EC70
:1007F00093E40E941A0220E030E04AEF53E460E004
:1008000070E088EC93E40E941A020895853080F429
:10081000653080F490E0FC01EE0FFF1FEE0FFF1F2C
:10082000E80FF91FE35CFD4FE60FF11D808108958D
:1008300080E0089580E00895CF93DF93809158027F
:10084000882371F0D0913C02C0915B026D2F8C2FF8
:100850000E940604482F6D2F8C2F0E94CF0107C0E5
:1008600043E060913C0280915B020E94CF01909135
:10087000580281E0891B80935802DF91CF9108953F
:100880000F931F93CF93DF93082F162F81E0809350
:100890005802D0913C02C0915B026D2F8C2F0E94B8
:1008A0000604482F6D2F8C2F0E94CF0120915B02F0
:1008B000022E000C330BC901800F911D07FD9A9584
:1008C00065E070E00E940B1E99234CF4C901049668
:1008D00065E070E00E940B1E80935B0202C0809373
:1008E0005B0220913C02022E000C330BC901810FE8
:1008F000911D17FD9A9565E070E00E940B1E9923EB
:100900004CF4C901049665E070E00E940B1E8093D0
:100910003C0202C080933C021092580243E0609176
:100920003C0280915B020E94CF0180915902883085
:10093000F0F480915B02082E000C990B20913C0290
:10094000FC01EE0FFF1FEE0FFF1FE80FF91FE35C26
:10095000FD4FE20FF11D27FDFA958081811104C042
:1009600082B1816082B903C082B18E7F82B98091E9
:100970005A02811143C0809156028130F9F480916E
:100980005B02082E000C990B20913C02FC01EE0F3B
:10099000FF1FEE0FFF1FE80FF91FE35CFD4FE20F93
:1009A000F11D27FDFA958081813021F482B18160AB
:1009B00082B924C082B18E7F82B920C08230F1F426
:1009C00080915B02082E000C990B20913C02FC01E7
:1009D000EE0FFF1FEE0FFF1FE80FF91FE35CFD4F47
:1009E000E20FF11D27FDFA958081823021F482B15A
:1009F000816082B903C082B18E7F82B980915A0230
:100A0000813009F099C080915602813009F049C0C7
:100A100082B18E7F82B960915702615033C02091BC
:100A20005C02215020C080915B0268131BC0909132
:100A30003C02291317C0DF01AA0FBB1FAA0FBB1F5F
:100A4000AE0FBF1FA35CBD4FA40FB51F4C91443028
:100A500049F440915702841302C0391719F082B14A
:100A6000816082B92F5F422F022E000C550B30910E
:100A70005C02832F032E000C990B0296481759072E
:100A800094F26F5FE62F062E000CFF0B8091570249
:100A9000082E000C990B0296E817F9070CF4BFCF4B
:100AA0004BC0823009F048C082B18E7F82B960911C
:100AB0005702615033C020915C02215020C08091C8
:100AC0005B0268131BC090913C02291317C0DF0121
:100AD000AA0FBB1FAA0FBB1FAE0FBF1FA35CBD4F4A
:100AE000A40FB51F4C91443049F440915702841330
:100AF00002C0391719F082B1816082B92F5F422F8D
:100B0000022E000C550B30915C02832F032E000C3B
:100B1000990B02964817590794F26F5FE62F062E3D
:100B2000000CFF0B80915702082E000C990B0296C7
:100B3000E817F9070CF4BFCFDF91CF911F910F9108
:100B40000895CF92DF92EF92FF920F931F93CF936E
:100B5000DF93C3C080915602813009F03FC00E94EC
:100B6000211C68E070E08AE090E00E94101C84E2A2
:100B700091E09F938F930E94B21E6AE070E08AE03A
:100B800090E00E94101C80913902282F082E000C42
:100B9000330B3F938F938EE391E09F938F930E944B
:100BA000B21E6BE070E08AE090E00E94101C809121
:100BB0003A02282F082E000C330B3F938F9384E5C5
:100BC00091E09F938F930E94B21E8DB79EB70A96B5
:100BD0000FB6F8949EBF0FBE8DBF40C08230F1F5B6
:100BE0000E94211C68E070E08AE090E00E94101CE6
:100BF0008AE691E09F938F930E94B21E6AE070E0B4
:100C00008AE090E00E94101C80913902282F082E63
:100C1000000C330B3F938F938EE391E09F938F9360
:100C20000E94B21E6BE070E08AE090E00E94101C0F
:100C300080913A02282F082E000C330B3F938F939C
:100C400084E591E09F938F930E94B21E8DB79EB76B
:100C50000A960FB6F8949EBF0FBE8DBF80915B02BF
:100C6000282F082E000C330B60913C02A62F062E75
:100C7000000CBB0BF901EE0FFF1FEE0FFF1FE20F81
:100C8000F31FE35CFD4FEA0FFB1F908191112AC017
:100C900040915602F901EE0FFF1FEE0FFF1F2E0FBE
:100CA0003F1F235C3D4FA20FB31F4C930E94CF0107
:100CB00082B18E7F82B9809159028F5F80935902F1
:100CC00080915602813021F482E08093560205C063
:100CD000823019F481E08093560280915902883065
:100CE00008F438CF80915902883009F062C021C0E1
:100CF0008D2F0D2E000C990BFC01EE0FFF1FEE0F38
:100D0000FF1FE80FF91FE35CFD4FEC0FF11DC7FD5E
:100D1000FA9580818150823028F444E06C2F8D2F29
:100D20000E94CF01CF5F01C0C0E0C5300CF3DF5F90
:100D300001C0D0E0D530C4F30E94421C6B017C019D
:100D40000E94421C970186010C501E4F2F4F3F4FAF
:100D5000601771078207930798F328C08D2F0D2E17
:100D6000000C990BFC01EE0FFF1FEE0FFF1FE80FA9
:100D7000F91FE35CFD4FEC0FF11DC7FDFA95808173
:100D8000813031F441E06C2F8D2F0E94CF0107C0DC
:100D9000823029F442E06C2F8D2F0E94CF01CF5F6B
:100DA00001C0C0E0C530D4F2DF5F01C0D0E0D53073
:100DB000C4F381E080933B0227C1809156028130C9
:100DC00009F090C0E0905B0230913C028E2D0E2C19
:100DD000000C990BFC01EE0FFF1FEE0FFF1FE80F39
:100DE000F91FE35CFD4FE30FF11D37FDFA9580819C
:100DF000813009F0DBC2E092570230935C02EA9442
:100E00003CC0F0905C02FA942AC0F801EE0FFF1F7C
:100E1000EE0FFF1FE00FF11FE35CFD4FEC0FFD1F16
:100E2000808181111BC0EE20CCF094E09E15B4F0BF
:100E3000FF20A4F09F1594F044E06F2D8E2D0E94AA
:100E4000CF01C801880F991F880F991F800F911F2C
:100E5000835C9D4FC80FD91F84E08883F394CF2D06
:100E60000F2C000CDD0B80915C02082E000C990BFE
:100E70000296C817D9074CF2E3940E2D0E2C000CE5
:100E8000110B80915702082E000C990B029608173F
:100E900019070CF4B6CF0E94E30340E060913C02D6
:100EA00080915B020E94CF0180915B02082E000CB2
:100EB000990B20913C02FC01EE0FFF1FEE0FFF1F6C
:100EC000E80FF91FE35CFD4FE20FF11D27FDFA95D6
:100ED000108281E08093380210923B0282B18E7FB3
:100EE00082B992C0823009F061C2E0905B02309119
:100EF0003C028E2D0E2C000C990BFC01EE0FFF1FF7
:100F0000EE0FFF1FE80FF91FE35CFD4FE30FF11D2C
:100F100037FDFA958081823009F048C2E09257028D
:100F200030935C02EA943CC0F0905C02FA942AC0D0
:100F3000F801EE0FFF1FEE0FFF1FE00FF11FE35C44
:100F4000FD4FEC0FFD1F808181111BC0EE20CCF006
:100F500084E08E15B4F0FF20A4F08F1594F044E0E7
:100F60006F2D8E2D0E94CF01C801880F991F880F09
:100F7000991F800F911F835C9D4FC80FD91F84E07C
:100F80008883F394CF2D0F2C000CDD0B80915C0235
:100F9000082E000C990B0296C817D9074CF2E3945F
:100FA0000E2D0E2C000C110B80915702082E000CF8
:100FB000990B0296081719070CF4B6CF0E94E303A9
:100FC00040E060913C0280915B020E94CF018091E1
:100FD0005B02082E000C990B20913C02FC01EE0FE5
:100FE000FF1FEE0FFF1FE80FF91FE35CFD4FE20F3D
:100FF000F11D27FDFA95108281E08093380210924E
:101000003B0282B18E7F82B920915A02222309F4D9
:10101000D4CECCC180915602813009F0E2C000915B
:1010200057020150CFC010915C021150BBC080919B
:101030005B020813B6C090913C021913B2C0BE0106
:10104000660F771F660F771F6C0F7D1F635C7D4FE8
:10105000FB01E20FF31F2081243009F0A2C0209190
:101060005702821333C0491333C09BC08E2D0E2C00
:10107000000C990B2F2D0F2C000C330BFC01EE0FE5
:10108000FF1FEE0FFF1FE80FF91FE35CFD4FE20F9C
:10109000F31F4081443091F4AC01440F551F440FBD
:1010A000551F840F951F835C9D4FFC01E20FF31FBA
:1010B000108240E06F2D8E2D0E94CF01F39401C06D
:1010C000F12C94E09F1594F6E39403C0E12C01C049
:1010D000E12C84E08E15A4F741E060913C02809100
:1010E0005B020E94CF0180915B02082E000C990BDD
:1010F00020913C02FC01EE0FFF1FEE0FFF1FE80FD7
:10110000F91FE35CFD4FE20FF11D27FDFA9581E029
:10111000808310923B021092380282E08093560244
:101120000E94211C68E070E08AE090E00E94101CA0
:1011300082E891E09F938F930E94B21E6AE070E074
:101140008AE090E00E94101C80913902282F082E1E
:10115000000C330B3F938F938EE391E09F938F931B
:101160000E94B21E6BE070E08AE090E00E94101CCA
:1011700080913A02282F082E000C330B3F938F9357
:1011800084E591E09F938F930E94B21E82B18E7F7F
:1011900082B98DB79EB70A960FB6F8949EBF0FBE60
:1011A0008DBF1F5F212F012E000C330B40915C027D
:1011B000842F042E000C990B0296281739070CF483
:1011C00036CF0F5FC02F002E000CDD0B8091570231
:1011D000082E000C990B0296C817D9070CF423CFE0
:1011E000E8C0823009F0E2C0009157020150CFC040
:1011F00010915C021150BBC080915B020813B6C015
:1012000090913C021913B2C0BE01660F771F660FA2
:10121000771F6C0F7D1F635C7D4FFB01E20FF31F97
:101220002081243009F0A2C020915702821333C0DC
:10123000491333C09BC08E2D0E2C000C990B2F2D03
:101240000F2C000C330BFC01EE0FFF1FEE0FFF1FE6
:10125000E80FF91FE35CFD4FE20FF31F40814430BC
:1012600091F4AC01440F551F440F551F840F951F77
:10127000835C9D4FFC01E20FF31F108240E06F2D55
:101280008E2D0E94CF01F39401C0F12C94E09F15A4
:1012900094F6E39403C0E12C01C0E12C84E08E15A8
:1012A000A4F742E060913C0280915B020E94CF0172
:1012B00080915B02082E000C990B20913C02FC01EE
:1012C000EE0FFF1FEE0FFF1FE80FF91FE35CFD4F4E
:1012D000E20FF11D27FDFA9582E0808310923B0218
:1012E0001092380281E0809356020E94211C68E02F
:1012F00070E08AE090E00E94101C80EA91E09F93E9
:101300008F930E94B21E6AE070E08AE090E00E9433
:10131000101C80913902282F082E000C330B3F93AC
:101320008F938EE391E09F938F930E94B21E6BE0A8
:1013300070E08AE090E00E94101C80913A02282F11
:10134000082E000C330B3F938F9384E591E09F931D
:101350008F930E94B21E82B18E7F82B98DB79EB7E5
:101360000A960FB6F8949EBF0FBE8DBF1F5F212F48
:10137000012E000C330B40915C02842F042E000CD4
:10138000990B0296281739070CF436CF0F5FC02F40
:10139000002E000CDD0B80915702082E000C990BDB
:1013A0000296C817D9070CF423CF03C0213009F4E3
:1013B00031CE80913B0281114CC090915A0281E064
:1013C000891B80935A0245C00E94211C68E070E08E
:1013D0008AE090E00E94101C80EA91E09F938F9336
:1013E0000E94B21E6AE070E08AE090E00E94101C49
:1013F00080913902282F082E000C330B3F938F93D6
:101400008EE391E09F938F930E94B21E6BE070E099
:101410008AE090E00E94101C80913A02282F082E4A
:10142000000C330B3F938F9384E591E09F938F9350
:101430000E94B21E10925A02809159028F5F8093CF
:1014400059028DB79EB70A960FB6F8949EBF0FBE8D
:101450008DBF80915902883009F4B6CFDF91CF91CA
:101460001F910F91FF90EF90DF90CF900895CF9252
:10147000DF92EF92FF920F931F93CF93DF938091B0
:101480005602823009F052C4B8C08C2F0C2E000CCA
:10149000990BFC01E35CFD4F2581213009F0ABC0C5
:1014A000FC01E35CFD4F2285213009F0A4C0FC0162
:1014B000E35CFD4F2785213009F09DC0FC01E35C12
:1014C000FD4F2081213039F0FC01E35CFD4F848920
:1014D000813009F090C0809139028F5F809339028A
:1014E0000E94211C6AE070E08AE090E00E94101CDB
:1014F00080913902282F082E000C330B3F938F93D5
:101500008EE391E09F938F930E94B21E6BE070E098
:101510008AE090E00E94101C80913A02282F082E49
:10152000000C330B3F938F9384E591E09F938F934F
:101530000E94B21E8DB79EB708960FB6F8949EBF54
:101540000FBE8DBF10E01FC0812F012E000C990B24
:10155000FC01EE0FFF1FEE0FFF1FE80FF91FE35C0A
:10156000FD4FED0FF11DD7FDFA958081813029F4F3
:1015700044E06D2F812F0E94CF01DF5F01C0D0E0DA
:10158000D53014F31F5F1530D4F30E94421C6B0159
:101590007C010E94421C970186010C501E4F2F4F68
:1015A0003F4F601771078207930798F320C0812F80
:1015B000012E000C990BFC01EE0FFF1FEE0FFF1F19
:1015C000E80FF91FE35CFD4FED0FF11DD7FDFA9514
:1015D0008081813029F441E06D2F812F0E94CF015D
:1015E000DF5F01C0D0E0D53014F31F5F01C010E011
:1015F0001530C4F3D1E0CF5F02C0C0E0D0E0C53009
:101600000CF443CFC0E0D6C08C2F0C2E000C990BED
:10161000FC01EE0FFF1FEE0FFF1FE80FF91FE35C49
:10162000FD4F2181213009F0C4C0FC01EE0FFF1FE6
:10163000EE0FFF1FE80FF91FE35CFD4F2281213001
:1016400009F0B7C0FC01EE0FFF1FEE0FFF1FE80F00
:10165000F91FE35CFD4F2381213009F0AAC0FC0192
:10166000EE0FFF1FEE0FFF1FE80FF91FE35CFD4FAA
:101670002081213071F0FC01EE0FFF1FEE0FFF1FE4
:101680008E0F9F1FFC01E35CFD4F8481813009F0C8
:1016900090C0809139028F5F809339020E94211C93
:1016A0006AE070E08AE090E00E94101C80913902AC
:1016B000282F082E000C330B3F938F938EE391E07D
:1016C0009F938F930E94B21E6BE070E08AE090E0DF
:1016D0000E94101C80913A02282F082E000C330B18
:1016E0003F938F9384E591E09F938F930E94B21E66
:1016F0008DB79EB708960FB6F8949EBF0FBE8DBFEC
:1017000010E01FC0812F012E000C990BFC01EE0F81
:10171000FF1FEE0FFF1FE80FF91FE35CFD4FED0FFA
:10172000F11DD7FDFA958081813029F444E06D2FB9
:10173000812F0E94CF01DF5F01C0D0E0D53014F3CC
:101740001F5F1530D4F30E94421C6B017C010E9484
:10175000421C970186010C501E4F2F4F3F4F6017C0
:1017600071078207930798F320C0812F012E000C88
:10177000990BFC01EE0FFF1FEE0FFF1FE80FF91F83
:10178000E35CFD4FED0FF11DD7FDFA9580818130AF
:1017900029F441E06D2F812F0E94CF01DF5F01C04E
:1017A000D0E0D53014F31F5F01C010E01530C4F352
:1017B000D1E0CF5FC5300CF427CF80915402813047
:1017C00061F480914E02813041F480914802813071
:1017D00021F4809142028130A1F080915002813049
:1017E00009F09FC080914A02813009F09AC080912F
:1017F0004402813009F095C080913E02813009F0A9
:1018000090C0809139028F5F809339020E94211C21
:101810006AE070E08AE090E00E94101C809139023A
:10182000282F082E000C330B3F938F938EE391E00B
:101830009F938F930E94B21E6BE070E08AE090E06D
:101840000E94101C80913A02282F082E000C330BA6
:101850003F938F9384E591E09F938F930E94B21EF4
:101860008DB79EB708960FB6F8949EBF0FBE8DBF7A
:10187000D0E01FC08D2F0D2E000C990BFC01EE0F38
:10188000FF1FEE0FFF1FE80FF91FE35CFD4FEC0F8A
:10189000F11DC7FDFA958081813029F444E06C2F59
:1018A0008D2F0E94CF01CF5F01C0C0E0C53014F37F
:1018B000DF5FD530D4F30E94421C6B017C010E9493
:1018C000421C970186010C501E4F2F4F3F4F60174F
:1018D00071078207930798F320C08D2F0D2E000CFF
:1018E000990BFC01EE0FFF1FEE0FFF1FE80FF91F12
:1018F000E35CFD4FEC0FF11DC7FDFA95808181304F
:1019000029F441E06C2F8D2F0E94CF01CF5F01C0E1
:10191000C0E0C53014F3DF5F01C0D0E0D530C4F3C0
:10192000D1E080914F02813009F0A3C0809149023B
:10193000813009F09EC080914302813009F099C046
:1019400080915502813029F080913D02813009F06B
:1019500090C0809139028F5F809339020E94211CD0
:101960006AE070E08AE090E00E94101C80913902E9
:10197000282F082E000C330B3F938F938EE391E0BA
:101980009F938F930E94B21E6BE070E08AE090E01C
:101990000E94101C80913A02282F082E000C330B55
:1019A0003F938F9384E591E09F938F930E94B21EA3
:1019B0008DB79EB708960FB6F8949EBF0FBE8DBF29
:1019C000D0E01FC08D2F0D2E000C990BFC01EE0FE7
:1019D000FF1FEE0FFF1FE80FF91FE35CFD4FEC0F39
:1019E000F11DC7FDFA958081813029F444E06C2F08
:1019F0008D2F0E94CF01CF5F01C0C0E0C53014F32E
:101A0000DF5FD530D4F30E94421C6B017C010E9441
:101A1000421C970186010C501E4F2F4F3F4F6017FD
:101A200071078207930798F320C08D2F0D2E000CAD
:101A3000990BFC01EE0FFF1FEE0FFF1FE80FF91FC0
:101A4000E35CFD4FEC0FF11DC7FDFA9580818130FD
:101A500029F441E06C2F8D2F0E94CF01CF5F01C090
:101A6000C0E0C53014F3DF5F01C0D0E0D530C4F36F
:101A7000D1E080914002813061F480914402813054
:101A800041F480914802813021F480914C028130F0
:101A9000A1F080914602813009F09FC080914A02F6
:101AA000813009F09AC080914E02813009F095C0D2
:101AB00080915202813009F090C0809139028F5F8D
:101AC000809339020E94211C6AE070E08AE090E075
:101AD0000E94101C80913902282F082E000C330B15
:101AE0003F938F938EE391E09F938F930E94B21E5A
:101AF0006BE070E08AE090E00E94101C80913A0256
:101B0000282F082E000C330B3F938F9384E591E030
:101B10009F938F930E94B21E8DB79EB708960FB603
:101B2000F8949EBF0FBE8DBFD0E01FC08D2F0D2E2D
:101B3000000C990BFC01EE0FFF1FEE0FFF1FE80FCB
:101B4000F91FE35CFD4FEC0FF11DC7FDFA95808195
:101B5000813029F444E06C2F8D2F0E94CF01CF5F9C
:101B600001C0C0E0C53014F3DF5FD530D4F30E946C
:101B7000421C6B017C010E94421C970186010C50A3
:101B80001E4F2F4F3F4F601771078207930798F33F
:101B900020C08D2F0D2E000C990BFC01EE0FFF1FA6
:101BA000EE0FFF1FE80FF91FE35CFD4FEC0FF11D77
:101BB000C7FDFA958081813029F441E06C2F8D2F8B
:101BC0000E94CF01CF5F01C0C0E0C53014F3DF5FDA
:101BD00001C0D0E0D530C4F3D1E08091450281301E
:101BE00009F0F9C480914902813009F0F4C4809170
:101BF0004D02813009F0EFC480914102813029F01B
:101C000080915102813009F0E6C4809139028F5FE2
:101C1000809339020E94211C6AE070E08AE090E023
:101C20000E94101C80913902282F082E000C330BC3
:101C30003F938F938EE391E09F938F930E94B21E08
:101C40006BE070E08AE090E00E94101C80913A0204
:101C5000282F082E000C330B3F938F9384E591E0DF
:101C60009F938F930E94B21E8DB79EB708960FB6B2
:101C7000F8949EBF0FBE8DBFD0E01FC08D2F0D2EDC
:101C8000000C990BFC01EE0FFF1FEE0FFF1FE80F7A
:101C9000F91FE35CFD4FEC0FF11DC7FDFA95808144
:101CA000813029F444E06C2F8D2F0E94CF01CF5F4B
:101CB00001C0C0E0C53014F3DF5FD530D4F30E941B
:101CC000421C6B017C010E94421C970186010C5052
:101CD0001E4F2F4F3F4F601771078207930798F3EE
:101CE00020C08D2F0D2E000C990BFC01EE0FFF1F55
:101CF000EE0FFF1FE80FF91FE35CFD4FEC0FF11D26
:101D0000C7FDFA958081813029F441E06C2F8D2F39
:101D10000E94CF01CF5F01C0C0E0C53014F3DF5F88
:101D200001C0D0E0D530C4F3D1E055C4813009F40E
:101D3000BAC0D0E050C48C2F0C2E000C990BFC01C3
:101D4000E35CFD4F2581223009F0ABC0FC01E35C70
:101D5000FD4F2285223009F0A4C0FC01E35CFD4F59
:101D60002785223009F09DC0FC01E35CFD4F2081F6
:101D7000223039F0FC01E35CFD4F8489823009F0A8
:101D800090C080913A028F5F80933A020E94211C9A
:101D90006AE070E08AE090E00E94101C80913902B5
:101DA000282F082E000C330B3F938F938EE391E086
:101DB0009F938F930E94B21E6BE070E08AE090E0E8
:101DC0000E94101C80913A02282F082E000C330B21
:101DD0003F938F9384E591E09F938F930E94B21E6F
:101DE0008DB79EB708960FB6F8949EBF0FBE8DBFF5
:101DF00010E01FC0812F012E000C990BFC01EE0F8B
:101E0000FF1FEE0FFF1FE80FF91FE35CFD4FED0F03
:101E1000F11DD7FDFA958081823029F444E06D2FC1
:101E2000812F0E94CF01DF5F01C0D0E0D53014F3D5
:101E30001F5F1530D4F30E94421C6B017C010E948D
:101E4000421C970186010C501E4F2F4F3F4F6017C9
:101E500071078207930798F320C0812F012E000C91
:101E6000990BFC01EE0FFF1FEE0FFF1FE80FF91F8C
:101E7000E35CFD4FED0FF11DD7FDFA9580818230B7
:101E800029F442E06D2F812F0E94CF01DF5F01C056
:101E9000D0E0D53014F31F5F01C010E01530C4F35B
:101EA000D1E0CF5F02C0C0E0D0E0C5300CF443CF3A
:101EB000C0E0D6C08C2F0C2E000C990BFC01EE0F4D
:101EC000FF1FEE0FFF1FE80FF91FE35CFD4F21819D
:101ED000223009F0C4C0FC01EE0FFF1FEE0FFF1F00
:101EE000E80FF91FE35CFD4F2281223009F0B7C0F3
:101EF000FC01EE0FFF1FEE0FFF1FE80FF91FE35C61
:101F0000FD4F2381223009F0AAC0FC01EE0FFF1F14
:101F1000EE0FFF1FE80FF91FE35CFD4F2081223019
:101F200071F0FC01EE0FFF1FEE0FFF1F8E0F9F1FC2
:101F3000FC01E35CFD4F8481823009F090C0809108
:101F40003A028F5F80933A020E94211C6AE070E09F
:101F50008AE090E00E94101C80913902282F082E00
:101F6000000C330B3F938F938EE391E09F938F93FD
:101F70000E94B21E6BE070E08AE090E00E94101CAC
:101F800080913A02282F082E000C330B3F938F9339
:101F900084E591E09F938F930E94B21E8DB79EB708
:101FA00008960FB6F8949EBF0FBE8DBF10E01FC0FD
:101FB000812F012E000C990BFC01EE0FFF1FEE0F7D
:101FC000FF1FE80FF91FE35CFD4FED0FF11DD7FD7B
:101FD000FA958081823029F444E06D2F812F0E9490
:101FE000CF01DF5F01C0D0E0D53014F31F5F1530A3
:101FF000D4F30E94421C6B017C010E94421C970199
:1020000086010C501E4F2F4F3F4F601771078207FC
:10201000930798F320C0812F012E000C990BFC012F
:10202000EE0FFF1FEE0FFF1FE80FF91FE35CFD4FE0
:10203000ED0FF11DD7FDFA958081823029F442E041
:102040006D2F812F0E94CF01DF5F01C0D0E0D5301E
:1020500014F31F5F01C010E01530C4F3D1E0CF5F6F
:10206000C5300CF427CF80915402823061F4809106
:102070004E02823041F480914802823021F48091F6
:1020800042028230A1F080915002823009F09FC05C
:1020900080914A02823009F09AC0809144028230D5
:1020A00009F095C080913E02823009F090C0809185
:1020B0003A028F5F80933A020E94211C6AE070E02E
:1020C0008AE090E00E94101C80913902282F082E8F
:1020D000000C330B3F938F938EE391E09F938F938C
:1020E0000E94B21E6BE070E08AE090E00E94101C3B
:1020F00080913A02282F082E000C330B3F938F93C8
:1021000084E591E09F938F930E94B21E8DB79EB796
:1021100008960FB6F8949EBF0FBE8DBFD0E01FC0CB
:102120008D2F0D2E000C990BFC01EE0FFF1FEE0FF3
:10213000FF1FE80FF91FE35CFD4FEC0FF11DC7FD1A
:10214000FA958081823029F444E06C2F8D2F0E9413
:10215000CF01CF5F01C0C0E0C53014F3DF5FD530E1
:10216000D4F30E94421C6B017C010E94421C970127
:1021700086010C501E4F2F4F3F4F6017710782078B
:10218000930798F320C08D2F0D2E000C990BFC01A6
:10219000EE0FFF1FEE0FFF1FE80FF91FE35CFD4F6F
:1021A000EC0FF11DC7FDFA958081823029F442E0E1
:1021B0006C2F8D2F0E94CF01CF5F01C0C0E0C530D2
:1021C00014F3DF5F01C0D0E0D530C4F3D1E08091DB
:1021D0004F02823009F0A3C080914902823009F099
:1021E0009EC080914302823009F099C080915502CF
:1021F000823029F080913D02823009F090C08091B8
:102200003A028F5F80933A020E94211C6AE070E0DC
:102210008AE090E00E94101C80913902282F082E3D
:10222000000C330B3F938F938EE391E09F938F933A
:102230000E94B21E6BE070E08AE090E00E94101CE9
:1022400080913A02282F082E000C330B3F938F9376
:1022500084E591E09F938F930E94B21E8DB79EB745
:1022600008960FB6F8949EBF0FBE8DBFD0E01FC07A
:102270008D2F0D2E000C990BFC01EE0FFF1FEE0FA2
:10228000FF1FE80FF91FE35CFD4FEC0FF11DC7FDC9
:10229000FA958081823029F444E06C2F8D2F0E94C2
:1022A000CF01CF5F01C0C0E0C53014F3DF5FD53090
:1022B000D4F30E94421C6B017C010E94421C9701D6
:1022C00086010C501E4F2F4F3F4F6017710782073A
:1022D000930798F320C08D2F0D2E000C990BFC0155
:1022E000EE0FFF1FEE0FFF1FE80FF91FE35CFD4F1E
:1022F000EC0FF11DC7FDFA958081823029F442E090
:102300006C2F8D2F0E94CF01CF5F01C0C0E0C53080
:1023100014F3DF5F01C0D0E0D530C4F3D1E0809189
:102320004002823061F480914402823041F4809115
:102330004802823021F480914C028230A1F08091D9
:102340004602823009F09FC080914A02823009F033
:102350009AC080914E02823009F095C0809152025D
:10236000823009F090C080913A028F5F80933A02E8
:102370000E94211C6AE070E08AE090E00E94101C3C
:1023800080913902282F082E000C330B3F938F9336
:102390008EE391E09F938F930E94B21E6BE070E0FA
:1023A0008AE090E00E94101C80913A02282F082EAB
:1023B000000C330B3F938F9384E591E09F938F93B1
:1023C0000E94B21E8DB79EB708960FB6F8949EBFB6
:1023D0000FBE8DBFD0E01FC08D2F0D2E000C990BAE
:1023E000FC01EE0FFF1FEE0FFF1FE80FF91FE35C6C
:1023F000FD4FEC0FF11DC7FDFA958081823029F465
:1024000044E06C2F8D2F0E94CF01CF5F01C0C0E050
:10241000C53014F3DF5FD530D4F30E94421C6B014A
:102420007C010E94421C970186010C501E4F2F4FC9
:102430003F4F601771078207930798F320C08D2FD5
:102440000D2E000C990BFC01EE0FFF1FEE0FFF1F6E
:10245000E80FF91FE35CFD4FEC0FF11DC7FDFA9586
:102460008081823029F442E06C2F8D2F0E94CF01B1
:10247000CF5F01C0C0E0C53014F3DF5F01C0D0E022
:10248000D530C4F3D1E080914502823009F0A3C079
:1024900080914902823009F09EC080914D028230C5
:1024A00009F099C080914102823029F08091510257
:1024B000823009F090C080913A028F5F80933A0297
:1024C0000E94211C6AE070E08AE090E00E94101CEB
:1024D00080913902282F082E000C330B3F938F93E5
:1024E0008EE391E09F938F930E94B21E6BE070E0A9
:1024F0008AE090E00E94101C80913A02282F082E5A
:10250000000C330B3F938F9384E591E09F938F935F
:102510000E94B21E8DB79EB708960FB6F8949EBF64
:102520000FBE8DBFD0E01FC08D2F0D2E000C990B5C
:10253000FC01EE0FFF1FEE0FFF1FE80FF91FE35C1A
:10254000FD4FEC0FF11DC7FDFA958081823029F413
:1025500044E06C2F8D2F0E94CF01CF5F01C0C0E0FF
:10256000C53014F3DF5FD530D4F30E94421C6B01F9
:102570007C010E94421C970186010C501E4F2F4F78
:102580003F4F601771078207930798F320C08D2F84
:102590000D2E000C990BFC01EE0FFF1FEE0FFF1F1D
:1025A000E80FF91FE35CFD4FEC0FF11DC7FDFA9535
:1025B0008081823029F442E06C2F8D2F0E94CF0160
:1025C000CF5F01C0C0E0C53014F3DF5F01C0D0E0D1
:1025D000D530C4F3D1E080913902823091F469E0C2
:1025E00070E08AE090E00E94101C80EC91E09F93E4
:1025F0008F930E94B21E10923A02109239020F90ED
:102600000F9080913A02823091F469E070E08AE0A4
:1026100090E00E94101C86EF91E09F938F930E94A0
:10262000B21E10923A02109239020F900F908D2F25
:10263000DF91CF911F910F91FF90EF90DF90CF909E
:10264000089540E060E030E02BC0211101C030E08F
:10265000842F042E000C990BFC01EE0FFF1FEE0FD0
:10266000FF1FE80FF91FE35CFD4FE20FF11D27FD8F
:10267000FA958081813031F43F5F243059F4361768
:1026800024F408C0361724F405C0632F30E002C0DC
:10269000632F30E02F5F01C020E02530B4F24F5FA0
:1026A0004530D4F350E040E02CC0211101C030E0AF
:1026B000822F022E000C990BFC01EE0FFF1FEE0F74
:1026C000FF1FE80FF91FE35CFD4FE50FF11D57FDFC
:1026D000FA958081813031F43F5F243059F434170A
:1026E00024F408C0341724F405C0432F30E002C09E
:1026F000432F30E02F5F02C020E030E02530ACF205
:102700005F5F5530CCF364170CF0462F8091460282
:10271000813031F480914002813021F080E003C0AB
:1027200080E001C082E090E052E060E025C0292F07
:10273000092E000C330BF901EE0FFF1FEE0FFF1FE8
:10274000E20FF31FE35CFD4FE50FF11D57FDFA9516
:102750002081213011F46F5F0DC0262F30E0E82F6B
:10276000082E000CFF0BE217F3071CF4862F60E025
:1027700001C060E05F5F9F5F9330CCF2262F30E0B6
:10278000E82F082E000CFF0BE217F3070CF4862F3E
:1027900090E051E060E025C0292F092E000C330B9A
:1027A000F901EE0FFF1FEE0FFF1FE20FF31FE35CB7
:1027B000FD4FE50FF11D57FDFA952081213011F4F1
:1027C0006F5F0DC0262F30E0E82F082E000CFF0BA6
:1027D000E217F3071CF4862F60E001C060E05F5F42
:1027E0009F5F9430CCF2262F30E0E82F082E000CAB
:1027F000FF0BE217F3070CF4862F90E050E060E047
:1028000025C0292F092E000C330BF901EE0FFF1FF5
:10281000EE0FFF1FE20FF31FE35CFD4FE50FF11D0D
:1028200057FDFA952081213011F46F5F0DC0262FDE
:1028300030E0E82F082E000CFF0BE217F3071CF422
:10284000862F60E001C060E05F5F9F5F9530CCF253
:10285000262F30E0E82F082E000CFF0BE217F307BD
:102860000CF4862F91E050E060E025C0292F092E5E
:10287000000C330BF901EE0FFF1FEE0FFF1FE20FED
:10288000F31FE35CFD4FE50FF11D57FDFA95208125
:10289000213011F46F5F0DC0262F30E0E82F082E95
:1028A000000CFF0BE217F3071CF4862F60E001C059
:1028B00060E05F5F9F5F9530CCF2262F30E0E82F1D
:1028C000082E000CFF0BE217F3070CF4862F92E0A2
:1028D00050E060E025C0292F092E000C330BF901D0
:1028E000EE0FFF1FEE0FFF1FE20FF31FE35CFD4F24
:1028F000E50FF11D57FDFA952081213011F46F5F2E
:102900000DC0262F30E0E82F082E000CFF0BE21739
:10291000F3071CF4862F60E001C060E05F5F9F5FFB
:102920009530CCF2262F30E0E82F082E000CFF0B5C
:10293000E217F3070CF4862F90914C02913039F492
:1029400090915202913019F482300CF482E090910F
:102950005402913039F490915002913019F4823040
:102960000CF482E092E054E060E025C0292F092EAB
:10297000000C330BF901EE0FFF1FEE0FFF1FE20FEC
:10298000F31FE35CFD4FE50FF11D57FDFA95208124
:10299000213011F46F5F0DC0262F30E0E82F082E94
:1029A000000CFF0BE217F3071CF4862F60E001C058
:1029B00060E051509F5F9530CCF2262F30E0E82F39
:1029C000082E000CFF0BE217F3070CF4862F91E0A2
:1029D00054E060E025C0292F092E000C330BF901CB
:1029E000EE0FFF1FEE0FFF1FE20FF31FE35CFD4F23
:1029F000E50FF11D57FDFA952081213011F46F5F2D
:102A00000DC0262F30E0E82F082E000CFF0BE21738
:102A1000F3071CF4862F60E001C060E051509F5F17
:102A20009530CCF2262F30E0E82F082E000CFF0B5B
:102A3000E217F3070CF4862F90E054E060E025C025
:102A4000292F092E000C330BF901EE0FFF1FEE0F9B
:102A5000FF1FE20FF31FE35CFD4FE50FF11D57FD74
:102A6000FA952081213011F46F5F0DC0262F30E0E0
:102A7000E82F082E000CFF0BE217F3071CF4862F3B
:102A800060E001C060E051509F5F9530CCF2262F8E
:102A900030E0E82F082E000CFF0BE217F3070CF4D0
:102AA000862F90E053E060E025C0292F092E000C0E
:102AB000330BF901EE0FFF1FEE0FFF1FE20FF31FA5
:102AC000E35CFD4FE50FF11D57FDFA9520812130A4
:102AD00011F46F5F0DC0262F30E0E82F082E000C98
:102AE000FF0BE217F3071CF4862F60E001C060E0E3
:102AF00051509F5F9430CCF2262F30E0E82F082E03
:102B0000000CFF0BE217F3070CF4862F90E052E065
:102B100060E025C0292F092E000C330BF901EE0FC0
:102B2000FF1FEE0FFF1FE20FF31FE35CFD4FE50FEA
:102B3000F11D57FDFA952081213011F46F5F0DC012
:102B4000262F30E0E82F082E000CFF0BE217F307CA
:102B50001CF4862F60E001C060E051509F5F93300D
:102B6000CCF2262F30E0E82F082E000CFF0BE217E6
:102B7000F3070CF4862F90913E02913039F4909136
:102B80004202913019F482300CF482E048170CF0C4
:102B9000842F089540E060E030E02BC0211101C097
:102BA00030E0842F042E000C990BFC01EE0FFF1F68
:102BB000EE0FFF1FE80FF91FE35CFD4FE20FF11D61
:102BC00027FDFA958081823031F43F5F243059F43B
:102BD000361724F408C0361724F405C0632F30E0FC
:102BE00002C0632F30E02F5F01C020E02530B4F237
:102BF0004F5F4530D4F350E040E02CC0211101C0BC
:102C000030E0822F022E000C990BFC01EE0FFF1F0B
:102C1000EE0FFF1FE80FF91FE35CFD4FE50FF11DFD
:102C200057FDFA958081823031F43F5F243059F4AA
:102C3000341724F408C0341724F405C0432F30E0BF
:102C400002C0432F30E02F5F02C020E030E025308B
:102C5000ACF25F5F5530CCF364170CF0462F8091D7
:102C60004602823031F480914002823021F080E0CF
:102C700003C080E001C082E090E052E060E025C047
:102C8000292F092E000C330BF901EE0FFF1FEE0F59
:102C9000FF1FE20FF31FE35CFD4FE50FF11D57FD32
:102CA000FA952081223011F46F5F0DC0262F30E09D
:102CB000E82F082E000CFF0BE217F3071CF4862FF9
:102CC00060E001C060E05F5F9F5F9330CCF2262F31
:102CD00030E0E82F082E000CFF0BE217F3070CF48E
:102CE000862F90E051E060E025C0292F092E000CCE
:102CF000330BF901EE0FFF1FEE0FFF1FE20FF31F63
:102D0000E35CFD4FE50FF11D57FDFA952081223060
:102D100011F46F5F0DC0262F30E0E82F082E000C55
:102D2000FF0BE217F3071CF4862F60E001C060E0A0
:102D30005F5F9F5F9430CCF2262F30E0E82F082EA3
:102D4000000CFF0BE217F3070CF4862F90E050E025
:102D500060E025C0292F092E000C330BF901EE0F7E
:102D6000FF1FEE0FFF1FE20FF31FE35CFD4FE50FA8
:102D7000F11D57FDFA952081223011F46F5F0DC0CF
:102D8000262F30E0E82F082E000CFF0BE217F30788
:102D90001CF4862F60E001C060E05F5F9F5F9530AC
:102DA000CCF2262F30E0E82F082E000CFF0BE217A4
:102DB000F3070CF4862F91E050E060E025C0292F46
:102DC000092E000C330BF901EE0FFF1FEE0FFF1F52
:102DD000E20FF31FE35CFD4FE50FF11D57FDFA9580
:102DE0002081223011F46F5F0DC0262F30E0E82FD4
:102DF000082E000CFF0BE217F3071CF4862F60E08F
:102E000001C060E05F5F9F5F9530CCF2262F30E01D
:102E1000E82F082E000CFF0BE217F3070CF4862FA7
:102E200092E050E060E025C0292F092E000C330B02
:102E3000F901EE0FFF1FEE0FFF1FE20FF31FE35C20
:102E4000FD4FE50FF11D57FDFA952081223011F459
:102E50006F5F0DC0262F30E0E82F082E000CFF0B0F
:102E6000E217F3071CF4862F60E001C060E05F5FAB
:102E70009F5F9530CCF2262F30E0E82F082E000C13
:102E8000FF0BE217F3070CF4862F90914C0292305F
:102E900039F490915202923019F482300CF482E0AD
:102EA00090915402923039F490915002923019F47A
:102EB00082300CF482E092E054E060E025C0292FDB
:102EC000092E000C330BF901EE0FFF1FEE0FFF1F51
:102ED000E20FF31FE35CFD4FE50FF11D57FDFA957F
:102EE0002081223011F46F5F0DC0262F30E0E82FD3
:102EF000082E000CFF0BE217F3071CF4862F60E08E
:102F000001C060E051509F5F9530CCF2262F30E039
:102F1000E82F082E000CFF0BE217F3070CF4862FA6
:102F200091E054E060E025C0292F092E000C330BFE
:102F3000F901EE0FFF1FEE0FFF1FE20FF31FE35C1F
:102F4000FD4FE50FF11D57FDFA952081223011F458
:102F50006F5F0DC0262F30E0E82F082E000CFF0B0E
:102F6000E217F3071CF4862F60E001C060E05150C7
:102F70009F5F9530CCF2262F30E0E82F082E000C12
:102F8000FF0BE217F3070CF4862F90E054E060E0AB
:102F900025C0292F092E000C330BF901EE0FFF1F5E
:102FA000EE0FFF1FE20FF31FE35CFD4FE50FF11D76
:102FB00057FDFA952081223011F46F5F0DC0262F46
:102FC00030E0E82F082E000CFF0BE217F3071CF48B
:102FD000862F60E001C060E051509F5F9530CCF2D9
:102FE000262F30E0E82F082E000CFF0BE217F30726
:102FF0000CF4862F90E053E060E025C0292F092EC5
:10300000000C330BF901EE0FFF1FEE0FFF1FE20F55
:10301000F31FE35CFD4FE50FF11D57FDFA9520818D
:10302000223011F46F5F0DC0262F30E0E82F082EFC
:10303000000CFF0BE217F3071CF4862F60E001C0C1
:1030400060E051509F5F9430CCF2262F30E0E82FA3
:10305000082E000CFF0BE217F3070CF4862F90E00C
:1030600052E060E025C0292F092E000C330BF90136
:10307000EE0FFF1FEE0FFF1FE20FF31FE35CFD4F8C
:10308000E50FF11D57FDFA952081223011F46F5F95
:103090000DC0262F30E0E82F082E000CFF0BE217A2
:1030A000F3071CF4862F60E001C060E051509F5F81
:1030B0009330CCF2262F30E0E82F082E000CFF0BC7
:1030C000E217F3070CF4862F90913E02923039F408
:1030D00090914202923019F482300CF482E0481749
:1030E0000CF0842F0895CF93C0913702C11108C00E
:1030F0000E94CA1580935D0282B18D7F82B90DC096
:10310000C13059F40E94211380935D0222B18C2FAB
:1031100090E0880F991F822B82B9E0915D02F0E068
:10312000E050FF4F808188B99091370281E0891B80
:1031300080933702CF91089580E80E94DE1B0895A6
:103140001F93CF93DF938031B0F46830A0F4142F35
:10315000C62FD82F81E00E940A1C6C2F677080E177
:10316000689F900111248D2F8F70822B0E940A1C62
:10317000812F0E940A1CDF91CF911F9108950F9318
:103180001F93CF938830A0F48B01C82F82E00E9458
:103190000A1C8C2F87700E940A1CC0E007C0F8012F
:1031A000EC0FF11D80810E940A1CCF5FC031B8F383
:1031B000CF911F910F9108950F931F93CF9380315B
:1031C000A0F48B01C82F83E00E940A1C8C2F8F7003
:1031D0000E940A1CC0E007C0F801EC0FF11D8081BD
:1031E0000E940A1CCF5FC830B8F3CF911F910F9196
:1031F00008958FE00E940A1C08950E949C180E9466
:103200009E0040E060E07BE480E090E00E94F61ADF
:103210000E942A1C789408950E94211C6AE070E0A4
:103220008AE090E00E94101C89EE90E09F938F93BB
:103230000E94C81E6CE070E08AE090E00E94101CC2
:103240008EEB90E09F938F930E94C81E6DE070E01C
:103250008AE090E00E94101C84EA90E09F938F9394
:103260000E94C81E0E948B010F900F900F900F902C
:103270000F900F900E943D1B882339F080917203BC
:10328000909173030E94741E01C08FEF833781F009
:10329000833571F0813711F0813531F4909105015A
:1032A00081E0891B809305010E94AE008F3F11F3DE
:1032B00008950E94211C0E94EB010E94F10282B13C
:1032C000816082B90E94AE000E94441B08958F92D3
:1032D0009F92AF92BF92CF92DF92EF92FF92CF93E5
:1032E000DF930E94421C4B015C0168E070E08AE0C1
:1032F00090E00E94101C84E291E09F938F930E94C3
:10330000B21E6AE070E08AE090E00E94101C80919A
:103310003902282F082E000C330B3F938F938EE336
:1033200091E09F938F930E94B21E6BE070E08AE061
:1033300090E00E94101C80913A02282F082E000C69
:10334000330B3F938F9384E591E09F938F930E947B
:10335000B21E8DB79EB70A960FB6F8949EBF0FBEE9
:103360008DBF84C00E9473180E94AE00C82F0E94B7
:103370003D1B882341F080917203909173030E945A
:10338000741ED82F01C0DFEFD73711F0D73521F4E5
:1033900061E080E00E944004D13711F0D13531F472
:1033A0009091050181E0891B80930501D13611F0D0
:1033B000D13421F460E08FEF0E944004D33711F044
:1033C000D33521F46FEF80E00E944004D43611F031
:1033D000D43421F460E081E00E944004D03711F041
:1033E000D03599F40E9473180E94AE00C82F0E9435
:1033F0003D1B8823B9F380917203909173030E945F
:10340000741E803711F0803569F7D03211F40E94B4
:10341000A105C33021F460E08FEF0E944004C23068
:1034200021F460E081E00E944004C13021F461E0B9
:1034300080E00E944004C11104C06FEF80E00E9450
:1034400040040E94421C6B017C01D501C4018C50D8
:103450009E4FAF4FBF4FC816D906EA06FB0620F0B5
:103460000E941C04460157010E9473180E94370AEB
:10347000882309F477CFDF91CF91FF90EF90DF9011
:10348000CF90BF90AF909F908F9008950E946F0350
:103490006EE070E08AE090E00E94101C8AE990E003
:1034A0009F938F930E94C81E6FE070E08AE090E0C7
:1034B0000E94101C8CE790E09F938F930E94C81E7F
:1034C0000F900F900F900F9018C00E9473180E94D9
:1034D0003D1B882339F080917203909173030E9401
:1034E000741E01C08FEF813711F0813531F4909156
:1034F000050181E0891B809305010E94AE008F3F8A
:1035000021F308958FEF81B987B90E94FD180E94B9
:103510000C190E9459190E9467190E94461AF9CF86
:10352000CF93C82F8A3019F48DE00E94901A9FB76C
:10353000907802C0992329F180915F028F3FD1F3E7
:10354000F894E0915E0281E08E0F80935E02F0E0DD
:10355000E05AFD4FC08380915F028F5F80935F02CE
:1035600080915E028F3F11F410925E02E1ECF0E078
:10357000808180628083992339F0789480E090E0A4
:1035800005C081E090E002C080E090E0CF91089516
:10359000809171038823E1F32FB72078F89480910C
:1035A0005F033091710390E0831B91095AF4E0911D
:1035B0005F0380917103F0E0E81BF109E059FC4FD3
:1035C00080810AC0E0915F0380917103F0E0E81B05
:1035D000F109E05AFC4F80819091710391509093D2
:1035E0007103222309F0789490E0089510925E020E
:1035F00010925F0210925F03109271031092700399
:1036000040933202DC01CB01880F991FAA1FBB1F18
:10361000880F991FAA1FBB1F9C01AD01220F331FEA
:10362000441F551F60E072E18AE790E00E941F1E70
:10363000BA01A9014F5F5F4F6F4F7F4FDB01CA0196
:103640001AF40196A11DB11DB595A795979587957B
:1036500001979093C5008093C400E1ECF0E088E10D
:103660008083808180688083E2E7F3E086E091E0F8
:10367000938382839183808308959091710381E085
:10368000911101C080E0089510925F0310927103C0
:1036900008951F920F920FB60F9211242F938F93BC
:1036A0009F93EF93FF9380915F02882329F180918C
:1036B0005E0220915F0290E0821B91095AF4E09132
:1036C0005E0280915F02F0E0E81BF109E15AFC4FD5
:1036D00090810AC0E0915E0280915F02F0E0E81BF9
:1036E000F109E05AFD4F908180915F0281508093F3
:1036F0005F029093C60005C0E1ECF0E080818F7D11
:103700008083FF91EF919F918F912F910F900FBE2A
:103710000F901F9018951F920F920FB60F921124C1
:103720002F933F934F935F936F937F938F939F93C9
:10373000AF93BF93CF93EF93FF93C091C600809157
:103740003202882349F080915F028F3F29F060E0C8
:1037500070E08C2F0E94901A80917103803120F0CC
:1037600081E08093700318C0CD3009F4CAE0E09185
:103770005F0381E08E0F80935F03F0E0E05AFC4F1F
:10378000C083809171038F5F8093710380915F0389
:10379000803111F410925F03FF91EF91CF91BF91AF
:1037A000AF919F918F917F916F915F914F913F91D9
:1037B0002F910F900FBE0F901F90189594B1906BA2
:1037C00094B995B1906195B990E59CBD883021F090
:1037D000803211F0823019F491E09DBD01C01DBC12
:1037E000803269F028F4883071F0803161F00EC0C9
:1037F000803429F0803851F48CB581608CBD8CB553
:1038000082608CBD03C08CB581608CBD85B18F7E1C
:1038100085B908958EBD0DB407FEFDCF8EB5089510
:103820009F938F937F936F9384EF90E09F938F93F9
:103830000E94C81E0F900F900F900F900F900F9046
:1038400008958FEE90E09F938F930E94C81E0F9073
:103850000F900895109233021092340210923502A4
:103860001092360216BC8CE787BD82E084BD83E0EF
:1038700085BDEEE6F0E080818260808385B3827052
:1038800085BB08958FB7282F2078F8946091330274
:10389000709134028091350290913602222309F012
:1038A000789408951F920F920FB60F9211248F9360
:1038B0009F93AF93BF938091330290913402A09174
:1038C0003502B09136020196A11DB11D80933302DD
:1038D00090933402A0933502B0933602BF91AF911A
:1038E0009F918F910F900FBE0F901F9018950E947F
:1038F000241D08F481E008950E94901C0C945F1D23
:103900000E94581D58F00E94511D40F029F45F3F5D
:1039100029F00C94481D51110C94931D0C944E1DCC
:103920000E94701D68F39923B1F3552391F3951B01
:10393000550BBB27AA2762177307840738F09F5FD0
:103940005F4F220F331F441FAA1FA9F335D00E2E3D
:103950003AF0E0E832D091505040E695001CCAF7AA
:103960002BD0FE2F29D0660F771F881FBB1F26176D
:1039700037074807AB07B0E809F0BB0B802DBF0144
:10398000FF2793585F4F3AF09E3F510578F00C9413
:10399000481D0C94931D5F3FE4F3983ED4F3869545
:1039A00077956795B795F7959F5FC9F7880F911D34
:1039B0009695879597F90895E1E0660F771F881F20
:1039C000BB1F621773078407BA0720F0621B730BD3
:1039D000840BBA0BEE1F88F7E09508950E94F51C42
:1039E0006894B1110C94931D08950E94781D88F07D
:1039F0009F5798F0B92F9927B751B0F0E1F0660FB3
:103A0000771F881F991F1AF0BA95C9F714C0B130F3
:103A100091F00E94921DB1E008950C94921D672FC1
:103A2000782F8827B85F39F0B93FCCF38695779522
:103A30006795B395D9F73EF490958095709561950B
:103A40007F4F8F4F9F4F0895990F0008550FAA0B76
:103A5000E0E8FEEF16161706E807F907C0F01216A1
:103A60001306E407F50798F0621B730B840B950BA4
:103A700039F40A2661F0232B242B252B21F40895F9
:103A80000A2609F4A140A6958FEF811D811D089596
:103A900097F99F6780E870E060E008959FEF80EC01
:103AA000089500240A9416161706180609060895A4
:103AB00000240A9412161306140605060895092E0A
:103AC0000394000C11F4882352F0BB0F40F4BF2B79
:103AD00011F460FF04C06F5F7F4F8F4F9F4F0895B9
:103AE00057FD9058440F551F59F05F3F71F04795AF
:103AF000880F97FB991F61F09F3F79F08795089594
:103B0000121613061406551FF2CF4695F1DF08C0B2
:103B1000161617061806991FF1CF869571056105CF
:103B200008940895E894BB2766277727CB0197F977
:103B300008950E94241D08F48FEF08950E94B11D7E
:103B40000C945F1D0E94511D38F00E94581D20F0FA
:103B5000952311F00C94481D0C944E1D11240C94C7
:103B6000931D0E94701D70F3959FC1F3950F50E057
:103B7000551F629FF001729FBB27F00DB11D639F1F
:103B8000AA27F00DB11DAA1F649F6627B00DA11DC5
:103B9000661F829F2227B00DA11D621F739FB00D6B
:103BA000A11D621F839FA00D611D221F749F3327DB
:103BB000A00D611D231F849F600D211D822F762F74
:103BC0006A2F11249F5750409AF0F1F088234AF051
:103BD000EE0FFF1FBB1F661F771F881F91505040BD
:103BE000A9F79E3F510580F00C94481D0C94931D3D
:103BF0005F3FE4F3983ED4F3869577956795B79544
:103C0000F795E7959F5FC1F7FE2B880F911D96955D
:103C1000879597F9089597FB072E16F4009407D01F
:103C200077FD09D00E943E1E07FC05D03EF490951A
:103C300081959F4F0895709561957F4F0895052E4A
:103C400097FB1EF400940E94361E57FD07D00E9479
:103C5000521E07FC03D04EF40C94361E509540952E
:103C6000309521953F4F4F4F5F4F08959095809528
:103C7000709561957F4F8F4F9F4F0895AA1BBB1B77
:103C800051E107C0AA1FBB1FA617B70710F0A61B5C
:103C9000B70B881F991F5A95A9F780959095BC017D
:103CA000CD010895A1E21A2EAA1BBB1BFD010DC078
:103CB000AA1FBB1FEE1FFF1FA217B307E407F507DC
:103CC00020F0A21BB30BE40BF50B661F771F881FB8
:103CD000991F1A9469F760957095809590959B014E
:103CE000AC01BD01CF010895CF93DF93EC012B818F
:103CF00020FF33C026FF0AC02F7B2B838E819F813C
:103D000001969F838E838A8190E029C022FF0FC095
:103D1000E881F9818081082E000C990B009719F435
:103D200020622B831AC03196F983E8830EC0EA859E
:103D3000FB85099597FF09C02B81019611F080E260
:103D400001C080E1822B8B8308C02E813F812F5FD1
:103D50003F4F3F832E83992702C08FEF9FEFDF9164
:103D6000CF910895A0E0B0E0E8EBFEE10C948F2144
:103D7000AE014B5F5F4FFA0161917191AF0180918C
:103D80007403909175030E94EE1EE2E00C94AB2147
:103D9000A0E0B0E0EEECFEE10C948D21AE01495FB5
:103DA0005F4FDA016D917D91AD0102E713E0F801FB
:103DB00082819381DC0113962C91139728601396CE
:103DC0002C930E94EE1ED8011296ED91FC91139750
:103DD0002381277F2383E4E00C94A921ABE0B0E0AA
:103DE000E4EFFEE10C947F216C017B018A01FC0170
:103DF00017821682838181FFCCC1CE0101963C01DE
:103E0000F6019381F70193FD859193FF81917F01E5
:103E1000882309F4BAC1853239F493FD859193FF63
:103E200081917F01853229F4B60190E00E94E5205E
:103E3000E7CF912C212C312CFFE1F315D8F08B32F8
:103E400079F038F4803279F08332A1F4232D2061A7
:103E50001DC08D3261F0803369F4232D216016C0BE
:103E6000832D8260382EE32DE4603E2E2AC0F32D90
:103E7000F8601DC037FC2DC020ED280F2A3040F01F
:103E80008E32B9F436FC81C1232D2064322E19C044
:103E900036FE06C08AE0989E200D1124922E11C095
:103EA000EAE02E9E200D1124222EF32DF0623F2EEB
:103EB00008C08C3621F4832D8068382E02C08836E5
:103EC00041F4F70193FD859193FF81917F01811169
:103ED000B3CF982F9F7D9554933028F40C5F1F4FDC
:103EE0009FE399830DC0833631F0833771F08335BA
:103EF00009F059C021C0F801808189830E5F1F4FEE
:103F000088248394912C530113C02801F2E04F0EB2
:103F1000511CF801A080B18036FE03C0692D70E00D
:103F200002C06FEF7FEFC5010E94DA204C018201D1
:103F3000F32DFF773F2E16C0280122E0420E511CC0
:103F4000F801A080B18036FE03C0692D70E002C088
:103F50006FEF7FEFC5010E94CF204C01F32DF06879
:103F60003F2E820133FC1BC0822D90E088169906FB
:103F7000B0F4B60180E290E00E94E5202A94F4CFEC
:103F8000F50137FC859137FE81915F01B60190E024
:103F90000E94E52021102A9421E0821A91088114C0
:103FA000910471F7E8C0843611F0893641F5F801C3
:103FB00037FE07C060817181828193810C5F1F4F42
:103FC00008C060817181072E000C880B990B0E5F71
:103FD0001F4FF32DFF763F2E97FF09C090958095D8
:103FE000709561957F4F8F4F9F4FF0683F2E2AE06D
:103FF00030E0A3010E942121882E861845C0853714
:1040000031F4232D2F7EB22E2AE030E025C0932DEF
:10401000997FB92E8F36C1F018F4883579F0B5C084
:10402000803719F0883721F0B0C0E92FE061BE2E4B
:10403000B4FE0DC0FB2DF460BF2E09C034FE0AC0D3
:10404000292F2660B22E06C028E030E005C020E10E
:1040500030E002C020E132E0F801B7FE07C0608125
:104060007181828193810C5F1F4F06C060817181D5
:1040700080E090E00E5F1F4FA3010E942121882E57
:104080008618FB2DFF773F2E36FE0DC0232D2E7F89
:10409000A22E891458F434FE0BC032FC09C0832DC3
:1040A0008E7EA82E05C0B82CA32C03C0B82C01C04E
:1040B000B92CA4FE0FC0FE01E80DF11D80818033F4
:1040C00021F49A2D997EA92E09C0A2FE06C0B394B0
:1040D000B39404C08A2D867809F0B394A3FC11C070
:1040E000A0FE06C0B21488F4280C922C9B180EC0B7
:1040F000B21460F4B60180E290E00E94E520B3942F
:10410000F7CFB21418F42B1802C0982C212CA4FE5F
:1041100010C0B60180E390E00E94E520A2FE17C027
:10412000A1FC03C088E790E002C088E590E0B601FA
:104130000CC08A2D867859F0A1FE02C08BE201C026
:1041400080E2A7FC8DE2B60190E00E94E520891490
:1041500038F4B60180E390E00E94E5209A94F7CF0E
:104160008A94F301E80DF11D8081B60190E00E9470
:10417000E5208110F5CF222009F442CEB60180E27D
:1041800090E00E94E5202A94F6CFF601868197817F
:1041900002C08FEF9FEF2B96E2E10C949B21FC0174
:1041A0000590615070400110D8F7809590958E0F62
:1041B0009F1F0895FC016150704001900110D8F7D5
:1041C000809590958E0F9F1F08950F931F93CF9307
:1041D000DF93FB01238121FD03C08FEF9FEF2CC0F4
:1041E00022FF16C04681578124813581421753072B
:1041F00044F4A081B1819D012F5F3F4F3183208323
:104200008C93268137812F5F3F4F3783268314C0DD
:104210008B01EC01FB010084F185E02D0995892BD0
:10422000E1F6D80116968D919C91179701961796F5
:104230009C938E931697CE01DF91CF911F910F9192
:104240000895FA01AA27283051F1203181F1E8942C
:104250006F936E7F6E5F7F4F8F4F9F4FAF4FB1E079
:104260003ED0B4E03CD0670F781F891F9A1FA11D74
:10427000680F791F8A1F911DA11D6A0F711D811D75
:10428000911DA11D20D009F468943F912AE0269F3A
:1042900011243019305D3193DEF6CF010895462F99
:1042A0004770405D4193B3E00FD0C9F7F6CF462F7A
:1042B0004F70405D4A3318F0495D31FD40524193E3
:1042C00002D0A9F7EACFB4E0A695979587957795A0
:1042D0006795BA95C9F700976105710508959B0127
:1042E000AC010A2E06945795479537952795BA95B0
:1042F000C9F7620F731F841F951FA01D08952F9289
:104300003F924F925F926F927F928F929F92AF9265
:10431000BF92CF92DF92EF92FF920F931F93CF93B2
:10432000DF93CDB7DEB7CA1BDB0B0FB6F894DEBF49
:104330000FBECDBF09942A88398848885F846E846F
:104340007D848C849B84AA84B984C884DF80EE80B9
:10435000FD800C811B81AA81B981CE0FD11D0FB6C2
:10436000F894DEBF0FBECDBFED010895F894FFCFE6
:104370003F065B4F66010000000300000000901A3A
:10438000C81A0000417D417C54547D55557C106C09
:104390003945453943757272656E7420506C617988
:1043A00065723A20312028477265656E2900506C8D
:1043B0006179657220312068617320776F6E203AD1
:1043C00020256400506C6179657220322068617329
:1043D00020776F6E203A2025640043757272656EF7
:1043E0007420506C617965723A20322028526564DD
:1043F0002900506C617965722032277320747572C0
:104400006E20746F206D6F766520285265642900D8
:10441000506C6179657220312773207475726E203B
:10442000746F206D6F76652028477265656E290070
:10443000504C415945522031204953205448452081
:1044400046494E414C2057494E4E455220494E2038
:1044500042455354204F46203320544F55524E412D
:104460004D454E542100504C41594552203220496F
:1044700053205448452046494E414C2057494E4E02
:10448000455220494E2042455354204F4620332068
:0C449000544F55524E414D454E542100F2
:00000001FF
